{
    "contractName": "Oracle",
    "abi": [
        {
            "inputs": [],
            "stateMutability": "nonpayable",
            "type": "constructor"
        },
        {
            "inputs": [],
            "name": "Random",
            "outputs": [
                {
                    "internalType": "uint256",
                    "name": "",
                    "type": "uint256"
                }
            ],
            "stateMutability": "view",
            "type": "function"
        },
        {
            "inputs": [
                {
                    "internalType": "uint256",
                    "name": "random",
                    "type": "uint256"
                }
            ],
            "name": "feedRandomNumbers",
            "outputs": [],
            "stateMutability": "nonpayable",
            "type": "function"
        }
    ],
    "bytecode": "608060405234801561001057600080fd5b50600080546001600160a01b0319163317905560cb806100316000396000f3fe6080604052348015600f57600080fd5b506004361060325760003560e01c8063604a6fa9146037578063d571c93d146051575b600080fd5b603f60015481565b60405190815260200160405180910390f35b6060605c366004607d565b6062565b005b6000546001600160a01b03163314607857600080fd5b600155565b600060208284031215608e57600080fd5b503591905056fea2646970667358221220bd9d377fa66616644e79ff3800827ce192ecd956734ad6dad29c5813547db3a164736f6c634300080f0033",
    "sourcePath": "c:/Users/Nikos/Desktop/ReactApplications/metamask-connection-and-send-ether/contracts/Lottery.sol",
    "compiler": {
        "name": "solc",
        "version": "0.8.15+commit.e14f2714"
    },
    "functionHashes": {
        "Random()": "604a6fa9",
        "feedRandomNumbers(uint256)": "d571c93d"
    },
    "gasEstimates": {
        "creation": {
            "codeDepositCost": "40600",
            "executionCost": "24328",
            "totalCost": "64928"
        },
        "external": {
            "Random()": "2261",
            "feedRandomNumbers(uint256)": "24464"
        }
    }
}